{
  "_format": "hh-sol-artifact-1",
  "contractName": "QngPaymaster",
  "sourceName": "contracts/qng/QngPaymaster.sol",
  "abi": [
    {
      "inputs": [
        {
          "internalType": "contract IEntryPoint",
          "name": "_entryPoint",
          "type": "address"
        },
        {
          "internalType": "address",
          "name": "_meerchange",
          "type": "address"
        }
      ],
      "stateMutability": "nonpayable",
      "type": "constructor"
    },
    {
      "anonymous": false,
      "inputs": [
        {
          "indexed": true,
          "internalType": "address",
          "name": "previousOwner",
          "type": "address"
        },
        {
          "indexed": true,
          "internalType": "address",
          "name": "newOwner",
          "type": "address"
        }
      ],
      "name": "OwnershipTransferred",
      "type": "event"
    },
    {
      "anonymous": false,
      "inputs": [
        {
          "indexed": false,
          "internalType": "address",
          "name": "sender",
          "type": "address"
        },
        {
          "indexed": false,
          "internalType": "uint256",
          "name": "amount",
          "type": "uint256"
        }
      ],
      "name": "Received",
      "type": "event"
    },
    {
      "inputs": [
        {
          "internalType": "uint32",
          "name": "unstakeDelaySec",
          "type": "uint32"
        }
      ],
      "name": "addStake",
      "outputs": [],
      "stateMutability": "payable",
      "type": "function"
    },
    {
      "inputs": [],
      "name": "deposit",
      "outputs": [],
      "stateMutability": "payable",
      "type": "function"
    },
    {
      "inputs": [],
      "name": "entryPoint",
      "outputs": [
        {
          "internalType": "contract IEntryPoint",
          "name": "",
          "type": "address"
        }
      ],
      "stateMutability": "view",
      "type": "function"
    },
    {
      "inputs": [],
      "name": "getDeposit",
      "outputs": [
        {
          "internalType": "uint256",
          "name": "",
          "type": "uint256"
        }
      ],
      "stateMutability": "view",
      "type": "function"
    },
    {
      "inputs": [],
      "name": "meerchange",
      "outputs": [
        {
          "internalType": "address",
          "name": "",
          "type": "address"
        }
      ],
      "stateMutability": "view",
      "type": "function"
    },
    {
      "inputs": [],
      "name": "owner",
      "outputs": [
        {
          "internalType": "address",
          "name": "",
          "type": "address"
        }
      ],
      "stateMutability": "view",
      "type": "function"
    },
    {
      "inputs": [
        {
          "internalType": "enum IPaymaster.PostOpMode",
          "name": "mode",
          "type": "uint8"
        },
        {
          "internalType": "bytes",
          "name": "context",
          "type": "bytes"
        },
        {
          "internalType": "uint256",
          "name": "actualGasCost",
          "type": "uint256"
        }
      ],
      "name": "postOp",
      "outputs": [],
      "stateMutability": "nonpayable",
      "type": "function"
    },
    {
      "inputs": [],
      "name": "renounceOwnership",
      "outputs": [],
      "stateMutability": "nonpayable",
      "type": "function"
    },
    {
      "inputs": [
        {
          "internalType": "address",
          "name": "newOwner",
          "type": "address"
        }
      ],
      "name": "transferOwnership",
      "outputs": [],
      "stateMutability": "nonpayable",
      "type": "function"
    },
    {
      "inputs": [],
      "name": "unlockStake",
      "outputs": [],
      "stateMutability": "nonpayable",
      "type": "function"
    },
    {
      "inputs": [
        {
          "components": [
            {
              "internalType": "address",
              "name": "sender",
              "type": "address"
            },
            {
              "internalType": "uint256",
              "name": "nonce",
              "type": "uint256"
            },
            {
              "internalType": "bytes",
              "name": "initCode",
              "type": "bytes"
            },
            {
              "internalType": "bytes",
              "name": "callData",
              "type": "bytes"
            },
            {
              "internalType": "uint256",
              "name": "callGasLimit",
              "type": "uint256"
            },
            {
              "internalType": "uint256",
              "name": "verificationGasLimit",
              "type": "uint256"
            },
            {
              "internalType": "uint256",
              "name": "preVerificationGas",
              "type": "uint256"
            },
            {
              "internalType": "uint256",
              "name": "maxFeePerGas",
              "type": "uint256"
            },
            {
              "internalType": "uint256",
              "name": "maxPriorityFeePerGas",
              "type": "uint256"
            },
            {
              "internalType": "bytes",
              "name": "paymasterAndData",
              "type": "bytes"
            },
            {
              "internalType": "bytes",
              "name": "signature",
              "type": "bytes"
            }
          ],
          "internalType": "struct UserOperation",
          "name": "userOp",
          "type": "tuple"
        },
        {
          "internalType": "bytes32",
          "name": "userOpHash",
          "type": "bytes32"
        },
        {
          "internalType": "uint256",
          "name": "maxCost",
          "type": "uint256"
        }
      ],
      "name": "validatePaymasterUserOp",
      "outputs": [
        {
          "internalType": "bytes",
          "name": "context",
          "type": "bytes"
        },
        {
          "internalType": "uint256",
          "name": "validationData",
          "type": "uint256"
        }
      ],
      "stateMutability": "nonpayable",
      "type": "function"
    },
    {
      "inputs": [
        {
          "internalType": "address payable",
          "name": "withdrawAddress",
          "type": "address"
        }
      ],
      "name": "withdrawStake",
      "outputs": [],
      "stateMutability": "nonpayable",
      "type": "function"
    },
    {
      "inputs": [
        {
          "internalType": "address payable",
          "name": "withdrawAddress",
          "type": "address"
        },
        {
          "internalType": "uint256",
          "name": "amount",
          "type": "uint256"
        }
      ],
      "name": "withdrawTo",
      "outputs": [],
      "stateMutability": "nonpayable",
      "type": "function"
    },
    {
      "stateMutability": "payable",
      "type": "receive"
    }
  ],
  "bytecode": "0x60a060405234801561001057600080fd5b506040516111f63803806111f683398101604081905261002f916100cd565b8161003933610065565b6001600160a01b03908116608052600180546001600160a01b0319169290911691909117905550610107565b600080546001600160a01b038381166001600160a01b0319831681178455604051919092169283917f8be0079c531659141344cd1fd0a4f28419497f9722a3daafe3b4186f6b6457e09190a35050565b6001600160a01b03811681146100ca57600080fd5b50565b600080604083850312156100e057600080fd5b82516100eb816100b5565b60208401519092506100fc816100b5565b809150509250929050565b60805161109c61015a600039600081816101ef0152818161031a015281816103cb0152818161049501528181610505015281816105cc01528181610641015281816108b30152610a3d015261109c6000f3fe6080604052600436106100d65760003560e01c8063bb9fe6bf1161007f578063d0e30db011610059578063d0e30db014610269578063eda07a8214610271578063f2fde38b1461029e578063f465c77e146102be57600080fd5b8063bb9fe6bf14610211578063c23a5cea14610226578063c399ec881461024657600080fd5b80638da5cb5b116100b05780638da5cb5b1461016c578063a9a23409146101bd578063b0d691fe146101dd57600080fd5b80630396cb6014610122578063205c287814610137578063715018a61461015757600080fd5b3661011d576100e36102ec565b604080513381523460208201527f88a5966d370b9919b20f3e2c13ff65706f196a4e32cc2c12bf57088f88525874910160405180910390a1005b600080fd5b610135610130366004610b74565b61038f565b005b34801561014357600080fd5b50610135610152366004610bc3565b610441565b34801561016357600080fd5b506101356104d9565b34801561017857600080fd5b5060005473ffffffffffffffffffffffffffffffffffffffff165b60405173ffffffffffffffffffffffffffffffffffffffff90911681526020015b60405180910390f35b3480156101c957600080fd5b506101356101d8366004610bef565b6104ed565b3480156101e957600080fd5b506101937f000000000000000000000000000000000000000000000000000000000000000081565b34801561021d57600080fd5b506101356104fb565b34801561023257600080fd5b50610135610241366004610c7e565b61057f565b34801561025257600080fd5b5061025b610610565b6040519081526020016101b4565b6101356102ec565b34801561027d57600080fd5b506001546101939073ffffffffffffffffffffffffffffffffffffffff1681565b3480156102aa57600080fd5b506101356102b9366004610c7e565b6106c6565b3480156102ca57600080fd5b506102de6102d9366004610cab565b610782565b6040516101b4929190610cff565b6040517fb760faf90000000000000000000000000000000000000000000000000000000081523060048201527f000000000000000000000000000000000000000000000000000000000000000073ffffffffffffffffffffffffffffffffffffffff169063b760faf99034906024016000604051808303818588803b15801561037457600080fd5b505af1158015610388573d6000803e3d6000fd5b5050505050565b6103976107a5565b6040517f0396cb6000000000000000000000000000000000000000000000000000000000815263ffffffff821660048201527f000000000000000000000000000000000000000000000000000000000000000073ffffffffffffffffffffffffffffffffffffffff1690630396cb609034906024016000604051808303818588803b15801561042557600080fd5b505af1158015610439573d6000803e3d6000fd5b505050505050565b6104496107a5565b6040517f205c287800000000000000000000000000000000000000000000000000000000815273ffffffffffffffffffffffffffffffffffffffff8381166004830152602482018390527f0000000000000000000000000000000000000000000000000000000000000000169063205c287890604401600060405180830381600087803b15801561042557600080fd5b6104e16107a5565b6104eb6000610826565b565b6104f561089b565b50505050565b6105036107a5565b7f000000000000000000000000000000000000000000000000000000000000000073ffffffffffffffffffffffffffffffffffffffff1663bb9fe6bf6040518163ffffffff1660e01b8152600401600060405180830381600087803b15801561056b57600080fd5b505af11580156104f5573d6000803e3d6000fd5b6105876107a5565b6040517fc23a5cea00000000000000000000000000000000000000000000000000000000815273ffffffffffffffffffffffffffffffffffffffff82811660048301527f0000000000000000000000000000000000000000000000000000000000000000169063c23a5cea90602401600060405180830381600087803b15801561037457600080fd5b6040517f70a082310000000000000000000000000000000000000000000000000000000081523060048201526000907f000000000000000000000000000000000000000000000000000000000000000073ffffffffffffffffffffffffffffffffffffffff16906370a0823190602401602060405180830381865afa15801561069d573d6000803e3d6000fd5b505050506040513d601f19601f820116820180604052508101906106c19190610d7a565b905090565b6106ce6107a5565b73ffffffffffffffffffffffffffffffffffffffff8116610776576040517f08c379a000000000000000000000000000000000000000000000000000000000815260206004820152602660248201527f4f776e61626c653a206e6577206f776e657220697320746865207a65726f206160448201527f646472657373000000000000000000000000000000000000000000000000000060648201526084015b60405180910390fd5b61077f81610826565b50565b6060600061078e61089b565b61079985858561093a565b91509150935093915050565b60005473ffffffffffffffffffffffffffffffffffffffff1633146104eb576040517f08c379a000000000000000000000000000000000000000000000000000000000815260206004820181905260248201527f4f776e61626c653a2063616c6c6572206973206e6f7420746865206f776e6572604482015260640161076d565b6000805473ffffffffffffffffffffffffffffffffffffffff8381167fffffffffffffffffffffffff0000000000000000000000000000000000000000831681178455604051919092169283917f8be0079c531659141344cd1fd0a4f28419497f9722a3daafe3b4186f6b6457e09190a35050565b3373ffffffffffffffffffffffffffffffffffffffff7f000000000000000000000000000000000000000000000000000000000000000016146104eb576040517f08c379a000000000000000000000000000000000000000000000000000000000815260206004820152601560248201527f53656e646572206e6f7420456e747279506f696e740000000000000000000000604482015260640161076d565b60015460609060009073ffffffffffffffffffffffffffffffffffffffff1661096586840187610d93565b61097491602491601091610dff565b61097d91610e29565b60601c14610a0d576040517f08c379a000000000000000000000000000000000000000000000000000000000815260206004820152603260248201527f54686973207061796d656e746d6173746572206973206f6e6c7920646573696760448201527f6e656420666f72204d6565724368616e67650000000000000000000000000000606482015260840161076d565b6040517f70a0823100000000000000000000000000000000000000000000000000000000815230600482015283907f000000000000000000000000000000000000000000000000000000000000000073ffffffffffffffffffffffffffffffffffffffff16906370a0823190602401602060405180830381865afa158015610a99573d6000803e3d6000fd5b505050506040513d601f19601f82011682018060405250810190610abd9190610d7a565b1015610b25576040517f08c379a000000000000000000000000000000000000000000000000000000000815260206004820152600f60248201527f62616c616e636520746f6f206c6f770000000000000000000000000000000000604482015260640161076d565b848484604051602001610b3a93929190610f1e565b604080517fffffffffffffffffffffffffffffffffffffffffffffffffffffffffffffffe081840301815291905295600095509350505050565b600060208284031215610b8657600080fd5b813563ffffffff81168114610b9a57600080fd5b9392505050565b73ffffffffffffffffffffffffffffffffffffffff8116811461077f57600080fd5b60008060408385031215610bd657600080fd5b8235610be181610ba1565b946020939093013593505050565b60008060008060608587031215610c0557600080fd5b843560038110610c1457600080fd5b9350602085013567ffffffffffffffff80821115610c3157600080fd5b818701915087601f830112610c4557600080fd5b813581811115610c5457600080fd5b886020828501011115610c6657600080fd5b95986020929092019750949560400135945092505050565b600060208284031215610c9057600080fd5b8135610b9a81610ba1565b8035610ca681610ba1565b919050565b600080600060608486031215610cc057600080fd5b833567ffffffffffffffff811115610cd757600080fd5b84016101608187031215610cea57600080fd5b95602085013595506040909401359392505050565b604081526000835180604084015260005b81811015610d2d5760208187018101516060868401015201610d10565b81811115610d3f576000606083860101525b50602083019390935250601f919091017fffffffffffffffffffffffffffffffffffffffffffffffffffffffffffffffe01601606001919050565b600060208284031215610d8c57600080fd5b5051919050565b60008083357fffffffffffffffffffffffffffffffffffffffffffffffffffffffffffffffe1843603018112610dc857600080fd5b83018035915067ffffffffffffffff821115610de357600080fd5b602001915036819003821315610df857600080fd5b9250929050565b60008085851115610e0f57600080fd5b83861115610e1c57600080fd5b5050820193919092039150565b7fffffffffffffffffffffffffffffffffffffffff0000000000000000000000008135818116916014851015610e695780818660140360031b1b83161692505b505092915050565b60008083357fffffffffffffffffffffffffffffffffffffffffffffffffffffffffffffffe1843603018112610ea657600080fd5b830160208101925035905067ffffffffffffffff811115610ec657600080fd5b803603821315610df857600080fd5b8183528181602085013750600060208284010152600060207fffffffffffffffffffffffffffffffffffffffffffffffffffffffffffffffe0601f840116840101905092915050565b60608152610f4c60608201610f3286610c9b565b73ffffffffffffffffffffffffffffffffffffffff169052565b602084013560808201526000610f656040860186610e71565b6101608060a0860152610f7d6101c086018385610ed5565b9250610f8c6060890189610e71565b92507fffffffffffffffffffffffffffffffffffffffffffffffffffffffffffffffa0808786030160c0880152610fc4858584610ed5565b945060808a013560e0880152610100935060a08a013584880152610120915060c08a01358288015261014060e08b013581890152848b01358489015261100c838c018c610e71565b955093508188870301610180890152611026868686610ed5565b9550611034818c018c610e71565b955093505080878603016101a08801525050611051838383610ed5565b6020860197909752505050506040015291905056fea2646970667358221220ca0e19584b8591b6a93cc5f2906faa5ff984295e6e2e9ebea702b51bb298465964736f6c634300080f0033",
  "linkReferences": {},
  "deployedLinkReferences": {}
}